{
  "_format": "hh-sol-artifact-1",
  "contractName": "EscrowContract",
  "sourceName": "contracts/EscrowContract.sol",
  "abi": [
    {
      "inputs": [
        {
          "internalType": "address",
          "name": "tokenAddress",
          "type": "address"
        }
      ],
      "stateMutability": "nonpayable",
      "type": "constructor"
    },
    {
      "inputs": [
        {
          "internalType": "address",
          "name": "farmer",
          "type": "address"
        },
        {
          "internalType": "uint256[]",
          "name": "amounts",
          "type": "uint256[]"
        }
      ],
      "name": "createInstallments",
      "outputs": [],
      "stateMutability": "nonpayable",
      "type": "function"
    },
    {
      "inputs": [
        {
          "internalType": "address",
          "name": "",
          "type": "address"
        },
        {
          "internalType": "uint256",
          "name": "",
          "type": "uint256"
        }
      ],
      "name": "farmerInstallments",
      "outputs": [
        {
          "internalType": "uint256",
          "name": "amount",
          "type": "uint256"
        },
        {
          "internalType": "bool",
          "name": "released",
          "type": "bool"
        }
      ],
      "stateMutability": "view",
      "type": "function"
    },
    {
      "inputs": [
        {
          "internalType": "address",
          "name": "farmer",
          "type": "address"
        }
      ],
      "name": "getInstallments",
      "outputs": [
        {
          "components": [
            {
              "internalType": "uint256",
              "name": "amount",
              "type": "uint256"
            },
            {
              "internalType": "bool",
              "name": "released",
              "type": "bool"
            }
          ],
          "internalType": "struct EscrowContract.Installment[]",
          "name": "",
          "type": "tuple[]"
        }
      ],
      "stateMutability": "view",
      "type": "function"
    },
    {
      "inputs": [
        {
          "internalType": "address",
          "name": "farmer",
          "type": "address"
        },
        {
          "internalType": "uint256",
          "name": "index",
          "type": "uint256"
        }
      ],
      "name": "releaseInstallment",
      "outputs": [],
      "stateMutability": "nonpayable",
      "type": "function"
    },
    {
      "inputs": [],
      "name": "token",
      "outputs": [
        {
          "internalType": "contract GrowToken",
          "name": "",
          "type": "address"
        }
      ],
      "stateMutability": "view",
      "type": "function"
    }
  ],
  "bytecode": "0x608060405234801561001057600080fd5b50604051610c87380380610c87833981810160405281019061003291906100db565b806000806101000a81548173ffffffffffffffffffffffffffffffffffffffff021916908373ffffffffffffffffffffffffffffffffffffffff16021790555050610108565b600080fd5b600073ffffffffffffffffffffffffffffffffffffffff82169050919050565b60006100a88261007d565b9050919050565b6100b88161009d565b81146100c357600080fd5b50565b6000815190506100d5816100af565b92915050565b6000602082840312156100f1576100f0610078565b5b60006100ff848285016100c6565b91505092915050565b610b70806101176000396000f3fe608060405234801561001057600080fd5b50600436106100575760003560e01c80632b5001241461005c57806347d03f931461008d578063a5f6aa21146100a9578063cfb80d9c146100c5578063fc0c546a146100f5575b600080fd5b610076600480360381019061007191906105f0565b610113565b60405161008492919061065a565b60405180910390f35b6100a760048036038101906100a291906107dc565b610161565b005b6100c360048036038101906100be91906105f0565b610290565b005b6100df60048036038101906100da9190610838565b61040a565b6040516100ec9190610961565b60405180910390f35b6100fd6104cd565b60405161010a91906109e2565b60405180910390f35b6001602052816000526040600020818154811061012f57600080fd5b9060005260206000209060020201600091509150508060000154908060010160009054906101000a900460ff16905082565b600160008373ffffffffffffffffffffffffffffffffffffffff1673ffffffffffffffffffffffffffffffffffffffff16815260200190815260200160002060006101ac91906104f1565b60005b815181101561028b57600160008473ffffffffffffffffffffffffffffffffffffffff1673ffffffffffffffffffffffffffffffffffffffff1681526020019081526020016000206040518060400160405280848481518110610215576102146109fd565b5b602002602001015181526020016000151581525090806001815401808255809150506001900390600052602060002090600202016000909190919091506000820151816000015560208201518160010160006101000a81548160ff021916908315150217905550505080806001019150506101af565b505050565b6000600160008473ffffffffffffffffffffffffffffffffffffffff1673ffffffffffffffffffffffffffffffffffffffff16815260200190815260200160002082815481106102e3576102e26109fd565b5b906000526020600020906002020190508060010160009054906101000a900460ff1615610345576040517f08c379a000000000000000000000000000000000000000000000000000000000815260040161033c90610a89565b60405180910390fd5b60018160010160006101000a81548160ff02191690831515021790555060008054906101000a900473ffffffffffffffffffffffffffffffffffffffff1673ffffffffffffffffffffffffffffffffffffffff1663a9059cbb8483600001546040518363ffffffff1660e01b81526004016103c1929190610ab8565b6020604051808303816000875af11580156103e0573d6000803e3d6000fd5b505050506040513d601f19601f820116820180604052508101906104049190610b0d565b50505050565b6060600160008373ffffffffffffffffffffffffffffffffffffffff1673ffffffffffffffffffffffffffffffffffffffff168152602001908152602001600020805480602002602001604051908101604052809291908181526020016000905b828210156104c25783829060005260206000209060020201604051806040016040529081600082015481526020016001820160009054906101000a900460ff1615151515815250508152602001906001019061046b565b505050509050919050565b60008054906101000a900473ffffffffffffffffffffffffffffffffffffffff1681565b50805460008255600202906000526020600020908101906105129190610515565b50565b5b80821115610544576000808201600090556001820160006101000a81549060ff021916905550600201610516565b5090565b6000604051905090565b600080fd5b600080fd5b600073ffffffffffffffffffffffffffffffffffffffff82169050919050565b60006105878261055c565b9050919050565b6105978161057c565b81146105a257600080fd5b50565b6000813590506105b48161058e565b92915050565b6000819050919050565b6105cd816105ba565b81146105d857600080fd5b50565b6000813590506105ea816105c4565b92915050565b6000806040838503121561060757610606610552565b5b6000610615858286016105a5565b9250506020610626858286016105db565b9150509250929050565b610639816105ba565b82525050565b60008115159050919050565b6106548161063f565b82525050565b600060408201905061066f6000830185610630565b61067c602083018461064b565b9392505050565b600080fd5b6000601f19601f8301169050919050565b7f4e487b7100000000000000000000000000000000000000000000000000000000600052604160045260246000fd5b6106d182610688565b810181811067ffffffffffffffff821117156106f0576106ef610699565b5b80604052505050565b6000610703610548565b905061070f82826106c8565b919050565b600067ffffffffffffffff82111561072f5761072e610699565b5b602082029050602081019050919050565b600080fd5b600061075861075384610714565b6106f9565b9050808382526020820190506020840283018581111561077b5761077a610740565b5b835b818110156107a4578061079088826105db565b84526020840193505060208101905061077d565b5050509392505050565b600082601f8301126107c3576107c2610683565b5b81356107d3848260208601610745565b91505092915050565b600080604083850312156107f3576107f2610552565b5b6000610801858286016105a5565b925050602083013567ffffffffffffffff81111561082257610821610557565b5b61082e858286016107ae565b9150509250929050565b60006020828403121561084e5761084d610552565b5b600061085c848285016105a5565b91505092915050565b600081519050919050565b600082825260208201905092915050565b6000819050602082019050919050565b61089a816105ba565b82525050565b6108a98161063f565b82525050565b6040820160008201516108c56000850182610891565b5060208201516108d860208501826108a0565b50505050565b60006108ea83836108af565b60408301905092915050565b6000602082019050919050565b600061090e82610865565b6109188185610870565b935061092383610881565b8060005b8381101561095457815161093b88826108de565b9750610946836108f6565b925050600181019050610927565b5085935050505092915050565b6000602082019050818103600083015261097b8184610903565b905092915050565b6000819050919050565b60006109a86109a361099e8461055c565b610983565b61055c565b9050919050565b60006109ba8261098d565b9050919050565b60006109cc826109af565b9050919050565b6109dc816109c1565b82525050565b60006020820190506109f760008301846109d3565b92915050565b7f4e487b7100000000000000000000000000000000000000000000000000000000600052603260045260246000fd5b600082825260208201905092915050565b7f416c72656164792072656c656173656400000000000000000000000000000000600082015250565b6000610a73601083610a2c565b9150610a7e82610a3d565b602082019050919050565b60006020820190508181036000830152610aa281610a66565b9050919050565b610ab28161057c565b82525050565b6000604082019050610acd6000830185610aa9565b610ada6020830184610630565b9392505050565b610aea8161063f565b8114610af557600080fd5b50565b600081519050610b0781610ae1565b92915050565b600060208284031215610b2357610b22610552565b5b6000610b3184828501610af8565b9150509291505056fea2646970667358221220a3486c0059d9f78922d485829452206dd132aed4de4bae03143e096107cc3caa64736f6c634300081c0033",
  "linkReferences": {},
  "deployedLinkReferences": {}
}