{
  "_format": "hh-sol-artifact-1",
  "contractName": "FarmerRegistry",
  "sourceName": "contracts/FarmerRegistry.sol",
  "abi": [
    {
      "inputs": [
        {
          "internalType": "address",
          "name": "",
          "type": "address"
        }
      ],
      "name": "farmers",
      "outputs": [
        {
          "internalType": "string",
          "name": "name",
          "type": "string"
        },
        {
          "internalType": "string",
          "name": "region",
          "type": "string"
        },
        {
          "internalType": "string",
          "name": "cropType",
          "type": "string"
        },
        {
          "internalType": "bool",
          "name": "isRegistered",
          "type": "bool"
        }
      ],
      "stateMutability": "view",
      "type": "function"
    },
    {
      "inputs": [
        {
          "internalType": "address",
          "name": "farmer",
          "type": "address"
        }
      ],
      "name": "getFarmer",
      "outputs": [
        {
          "components": [
            {
              "internalType": "string",
              "name": "name",
              "type": "string"
            },
            {
              "internalType": "string",
              "name": "region",
              "type": "string"
            },
            {
              "internalType": "string",
              "name": "cropType",
              "type": "string"
            },
            {
              "internalType": "bool",
              "name": "isRegistered",
              "type": "bool"
            }
          ],
          "internalType": "struct FarmerRegistry.Farmer",
          "name": "",
          "type": "tuple"
        }
      ],
      "stateMutability": "view",
      "type": "function"
    },
    {
      "inputs": [
        {
          "internalType": "string",
          "name": "name",
          "type": "string"
        },
        {
          "internalType": "string",
          "name": "region",
          "type": "string"
        },
        {
          "internalType": "string",
          "name": "cropType",
          "type": "string"
        }
      ],
      "name": "registerFarmer",
      "outputs": [],
      "stateMutability": "nonpayable",
      "type": "function"
    }
  ],
  "bytecode": "0x6080604052348015600f57600080fd5b50610e3e8061001f6000396000f3fe608060405234801561001057600080fd5b50600436106100415760003560e01c806329a566d214610046578063401b216814610062578063e7609c1614610095575b600080fd5b610060600480360381019061005b91906107a2565b6100c5565b005b61007c600480360381019061007791906108a7565b610220565b60405161008c949392919061096e565b60405180910390f35b6100af60048036038101906100aa91906108a7565b6103f5565b6040516100bc9190610a92565b60405180910390f35b6000803373ffffffffffffffffffffffffffffffffffffffff1673ffffffffffffffffffffffffffffffffffffffff16815260200190815260200160002060030160009054906101000a900460ff1615610154576040517f08c379a000000000000000000000000000000000000000000000000000000000815260040161014b90610b00565b60405180910390fd5b6040518060800160405280848152602001838152602001828152602001600115158152506000803373ffffffffffffffffffffffffffffffffffffffff1673ffffffffffffffffffffffffffffffffffffffff16815260200190815260200160002060008201518160000190816101cb9190610d36565b5060208201518160010190816101e19190610d36565b5060408201518160020190816101f79190610d36565b5060608201518160030160006101000a81548160ff021916908315150217905550905050505050565b600060205280600052604060002060009150905080600001805461024390610b4f565b80601f016020809104026020016040519081016040528092919081815260200182805461026f90610b4f565b80156102bc5780601f10610291576101008083540402835291602001916102bc565b820191906000526020600020905b81548152906001019060200180831161029f57829003601f168201915b5050505050908060010180546102d190610b4f565b80601f01602080910402602001604051908101604052809291908181526020018280546102fd90610b4f565b801561034a5780601f1061031f5761010080835404028352916020019161034a565b820191906000526020600020905b81548152906001019060200180831161032d57829003601f168201915b50505050509080600201805461035f90610b4f565b80601f016020809104026020016040519081016040528092919081815260200182805461038b90610b4f565b80156103d85780601f106103ad576101008083540402835291602001916103d8565b820191906000526020600020905b8154815290600101906020018083116103bb57829003601f168201915b5050505050908060030160009054906101000a900460ff16905084565b6103fd61061e565b6000808373ffffffffffffffffffffffffffffffffffffffff1673ffffffffffffffffffffffffffffffffffffffff16815260200190815260200160002060405180608001604052908160008201805461045690610b4f565b80601f016020809104026020016040519081016040528092919081815260200182805461048290610b4f565b80156104cf5780601f106104a4576101008083540402835291602001916104cf565b820191906000526020600020905b8154815290600101906020018083116104b257829003601f168201915b505050505081526020016001820180546104e890610b4f565b80601f016020809104026020016040519081016040528092919081815260200182805461051490610b4f565b80156105615780601f1061053657610100808354040283529160200191610561565b820191906000526020600020905b81548152906001019060200180831161054457829003601f168201915b5050505050815260200160028201805461057a90610b4f565b80601f01602080910402602001604051908101604052809291908181526020018280546105a690610b4f565b80156105f35780601f106105c8576101008083540402835291602001916105f3565b820191906000526020600020905b8154815290600101906020018083116105d657829003601f168201915b505050505081526020016003820160009054906101000a900460ff1615151515815250509050919050565b60405180608001604052806060815260200160608152602001606081526020016000151581525090565b6000604051905090565b600080fd5b600080fd5b600080fd5b600080fd5b6000601f19601f8301169050919050565b7f4e487b7100000000000000000000000000000000000000000000000000000000600052604160045260246000fd5b6106af82610666565b810181811067ffffffffffffffff821117156106ce576106cd610677565b5b80604052505050565b60006106e1610648565b90506106ed82826106a6565b919050565b600067ffffffffffffffff82111561070d5761070c610677565b5b61071682610666565b9050602081019050919050565b82818337600083830152505050565b6000610745610740846106f2565b6106d7565b90508281526020810184848401111561076157610760610661565b5b61076c848285610723565b509392505050565b600082601f8301126107895761078861065c565b5b8135610799848260208601610732565b91505092915050565b6000806000606084860312156107bb576107ba610652565b5b600084013567ffffffffffffffff8111156107d9576107d8610657565b5b6107e586828701610774565b935050602084013567ffffffffffffffff81111561080657610805610657565b5b61081286828701610774565b925050604084013567ffffffffffffffff81111561083357610832610657565b5b61083f86828701610774565b9150509250925092565b600073ffffffffffffffffffffffffffffffffffffffff82169050919050565b600061087482610849565b9050919050565b61088481610869565b811461088f57600080fd5b50565b6000813590506108a18161087b565b92915050565b6000602082840312156108bd576108bc610652565b5b60006108cb84828501610892565b91505092915050565b600081519050919050565b600082825260208201905092915050565b60005b8381101561090e5780820151818401526020810190506108f3565b60008484015250505050565b6000610925826108d4565b61092f81856108df565b935061093f8185602086016108f0565b61094881610666565b840191505092915050565b60008115159050919050565b61096881610953565b82525050565b60006080820190508181036000830152610988818761091a565b9050818103602083015261099c818661091a565b905081810360408301526109b0818561091a565b90506109bf606083018461095f565b95945050505050565b600082825260208201905092915050565b60006109e4826108d4565b6109ee81856109c8565b93506109fe8185602086016108f0565b610a0781610666565b840191505092915050565b610a1b81610953565b82525050565b60006080830160008301518482036000860152610a3e82826109d9565b91505060208301518482036020860152610a5882826109d9565b91505060408301518482036040860152610a7282826109d9565b9150506060830151610a876060860182610a12565b508091505092915050565b60006020820190508181036000830152610aac8184610a21565b905092915050565b7f416c726561647920726567697374657265640000000000000000000000000000600082015250565b6000610aea6012836108df565b9150610af582610ab4565b602082019050919050565b60006020820190508181036000830152610b1981610add565b9050919050565b7f4e487b7100000000000000000000000000000000000000000000000000000000600052602260045260246000fd5b60006002820490506001821680610b6757607f821691505b602082108103610b7a57610b79610b20565b5b50919050565b60008190508160005260206000209050919050565b60006020601f8301049050919050565b600082821b905092915050565b600060088302610be27fffffffffffffffffffffffffffffffffffffffffffffffffffffffffffffffff82610ba5565b610bec8683610ba5565b95508019841693508086168417925050509392505050565b6000819050919050565b6000819050919050565b6000610c33610c2e610c2984610c04565b610c0e565b610c04565b9050919050565b6000819050919050565b610c4d83610c18565b610c61610c5982610c3a565b848454610bb2565b825550505050565b600090565b610c76610c69565b610c81818484610c44565b505050565b5b81811015610ca557610c9a600082610c6e565b600181019050610c87565b5050565b601f821115610cea57610cbb81610b80565b610cc484610b95565b81016020851015610cd3578190505b610ce7610cdf85610b95565b830182610c86565b50505b505050565b600082821c905092915050565b6000610d0d60001984600802610cef565b1980831691505092915050565b6000610d268383610cfc565b9150826002028217905092915050565b610d3f826108d4565b67ffffffffffffffff811115610d5857610d57610677565b5b610d628254610b4f565b610d6d828285610ca9565b600060209050601f831160018114610da05760008415610d8e578287015190505b610d988582610d1a565b865550610e00565b601f198416610dae86610b80565b60005b82811015610dd657848901518255600182019150602085019450602081019050610db1565b86831015610df35784890151610def601f891682610cfc565b8355505b6001600288020188555050505b50505050505056fea2646970667358221220149a5b4665519d6205eef9420b83dbb3d8e2215a7d30b568d79fd1ea1c6caa4a64736f6c634300081c0033",
  "linkReferences": {},
  "deployedLinkReferences": {}
}