{
  "_format": "hh-sol-artifact-1",
  "contractName": "MilestoneManager",
  "sourceName": "contracts/MilestoneManager.sol",
  "abi": [
    {
      "inputs": [
        {
          "internalType": "address",
          "name": "farmer",
          "type": "address"
        },
        {
          "internalType": "uint256",
          "name": "index",
          "type": "uint256"
        }
      ],
      "name": "completeMilestone",
      "outputs": [],
      "stateMutability": "nonpayable",
      "type": "function"
    },
    {
      "inputs": [
        {
          "internalType": "address",
          "name": "",
          "type": "address"
        },
        {
          "internalType": "uint256",
          "name": "",
          "type": "uint256"
        }
      ],
      "name": "farmerMilestones",
      "outputs": [
        {
          "internalType": "string",
          "name": "description",
          "type": "string"
        },
        {
          "internalType": "uint256",
          "name": "deadline",
          "type": "uint256"
        },
        {
          "internalType": "bool",
          "name": "completed",
          "type": "bool"
        }
      ],
      "stateMutability": "view",
      "type": "function"
    },
    {
      "inputs": [
        {
          "internalType": "address",
          "name": "farmer",
          "type": "address"
        }
      ],
      "name": "getMilestones",
      "outputs": [
        {
          "components": [
            {
              "internalType": "string",
              "name": "description",
              "type": "string"
            },
            {
              "internalType": "uint256",
              "name": "deadline",
              "type": "uint256"
            },
            {
              "internalType": "bool",
              "name": "completed",
              "type": "bool"
            }
          ],
          "internalType": "struct MilestoneManager.Milestone[]",
          "name": "",
          "type": "tuple[]"
        }
      ],
      "stateMutability": "view",
      "type": "function"
    },
    {
      "inputs": [
        {
          "internalType": "address",
          "name": "farmer",
          "type": "address"
        },
        {
          "internalType": "string",
          "name": "description",
          "type": "string"
        },
        {
          "internalType": "uint256",
          "name": "deadline",
          "type": "uint256"
        }
      ],
      "name": "initializeMilestone",
      "outputs": [],
      "stateMutability": "nonpayable",
      "type": "function"
    }
  ],
  "bytecode": "0x6080604052348015600f57600080fd5b50610e108061001f6000396000f3fe608060405234801561001057600080fd5b506004361061004c5760003560e01c806322a4e42d146100515780635db2f30914610081578063773949f81461009d578063d8e0ceaf146100cf575b600080fd5b61006b60048036038101906100669190610586565b6100eb565b6040516100789190610789565b60405180910390f35b61009b6004803603810190610096919061090c565b61023f565b005b6100b760048036038101906100b2919061097b565b61030b565b6040516100c693929190610a23565b60405180910390f35b6100e960048036038101906100e4919061097b565b6103e7565b005b60606000808373ffffffffffffffffffffffffffffffffffffffff1673ffffffffffffffffffffffffffffffffffffffff168152602001908152602001600020805480602002602001604051908101604052809291908181526020016000905b82821015610234578382906000526020600020906003020160405180606001604052908160008201805461017e90610a90565b80601f01602080910402602001604051908101604052809291908181526020018280546101aa90610a90565b80156101f75780601f106101cc576101008083540402835291602001916101f7565b820191906000526020600020905b8154815290600101906020018083116101da57829003601f168201915b50505050508152602001600182015481526020016002820160009054906101000a900460ff1615151515815250508152602001906001019061014b565b505050509050919050565b6000808473ffffffffffffffffffffffffffffffffffffffff1673ffffffffffffffffffffffffffffffffffffffff168152602001908152602001600020604051806060016040528084815260200183815260200160001515815250908060018154018082558091505060019003906000526020600020906003020160009091909190915060008201518160000190816102d99190610c6d565b506020820151816001015560408201518160020160006101000a81548160ff0219169083151502179055505050505050565b6000602052816000526040600020818154811061032757600080fd5b90600052602060002090600302016000915091505080600001805461034b90610a90565b80601f016020809104026020016040519081016040528092919081815260200182805461037790610a90565b80156103c45780601f10610399576101008083540402835291602001916103c4565b820191906000526020600020905b8154815290600101906020018083116103a757829003601f168201915b5050505050908060010154908060020160009054906101000a900460ff16905083565b6000808373ffffffffffffffffffffffffffffffffffffffff1673ffffffffffffffffffffffffffffffffffffffff168152602001908152602001600020818154811061043757610436610d3f565b5b906000526020600020906003020160020160009054906101000a900460ff1615610496576040517f08c379a000000000000000000000000000000000000000000000000000000000815260040161048d90610dba565b60405180910390fd5b60016000808473ffffffffffffffffffffffffffffffffffffffff1673ffffffffffffffffffffffffffffffffffffffff16815260200190815260200160002082815481106104e8576104e7610d3f565b5b906000526020600020906003020160020160006101000a81548160ff0219169083151502179055505050565b6000604051905090565b600080fd5b600080fd5b600073ffffffffffffffffffffffffffffffffffffffff82169050919050565b600061055382610528565b9050919050565b61056381610548565b811461056e57600080fd5b50565b6000813590506105808161055a565b92915050565b60006020828403121561059c5761059b61051e565b5b60006105aa84828501610571565b91505092915050565b600081519050919050565b600082825260208201905092915050565b6000819050602082019050919050565b600081519050919050565b600082825260208201905092915050565b60005b838110156106195780820151818401526020810190506105fe565b60008484015250505050565b6000601f19601f8301169050919050565b6000610641826105df565b61064b81856105ea565b935061065b8185602086016105fb565b61066481610625565b840191505092915050565b6000819050919050565b6106828161066f565b82525050565b60008115159050919050565b61069d81610688565b82525050565b600060608301600083015184820360008601526106c08282610636565b91505060208301516106d56020860182610679565b5060408301516106e86040860182610694565b508091505092915050565b60006106ff83836106a3565b905092915050565b6000602082019050919050565b600061071f826105b3565b61072981856105be565b93508360208202850161073b856105cf565b8060005b85811015610777578484038952815161075885826106f3565b945061076383610707565b925060208a0199505060018101905061073f565b50829750879550505050505092915050565b600060208201905081810360008301526107a38184610714565b905092915050565b600080fd5b600080fd5b7f4e487b7100000000000000000000000000000000000000000000000000000000600052604160045260246000fd5b6107ed82610625565b810181811067ffffffffffffffff8211171561080c5761080b6107b5565b5b80604052505050565b600061081f610514565b905061082b82826107e4565b919050565b600067ffffffffffffffff82111561084b5761084a6107b5565b5b61085482610625565b9050602081019050919050565b82818337600083830152505050565b600061088361087e84610830565b610815565b90508281526020810184848401111561089f5761089e6107b0565b5b6108aa848285610861565b509392505050565b600082601f8301126108c7576108c66107ab565b5b81356108d7848260208601610870565b91505092915050565b6108e98161066f565b81146108f457600080fd5b50565b600081359050610906816108e0565b92915050565b6000806000606084860312156109255761092461051e565b5b600061093386828701610571565b935050602084013567ffffffffffffffff81111561095457610953610523565b5b610960868287016108b2565b9250506040610971868287016108f7565b9150509250925092565b600080604083850312156109925761099161051e565b5b60006109a085828601610571565b92505060206109b1858286016108f7565b9150509250929050565b600082825260208201905092915050565b60006109d7826105df565b6109e181856109bb565b93506109f18185602086016105fb565b6109fa81610625565b840191505092915050565b610a0e8161066f565b82525050565b610a1d81610688565b82525050565b60006060820190508181036000830152610a3d81866109cc565b9050610a4c6020830185610a05565b610a596040830184610a14565b949350505050565b7f4e487b7100000000000000000000000000000000000000000000000000000000600052602260045260246000fd5b60006002820490506001821680610aa857607f821691505b602082108103610abb57610aba610a61565b5b50919050565b60008190508160005260206000209050919050565b60006020601f8301049050919050565b600082821b905092915050565b600060088302610b237fffffffffffffffffffffffffffffffffffffffffffffffffffffffffffffffff82610ae6565b610b2d8683610ae6565b95508019841693508086168417925050509392505050565b6000819050919050565b6000610b6a610b65610b608461066f565b610b45565b61066f565b9050919050565b6000819050919050565b610b8483610b4f565b610b98610b9082610b71565b848454610af3565b825550505050565b600090565b610bad610ba0565b610bb8818484610b7b565b505050565b5b81811015610bdc57610bd1600082610ba5565b600181019050610bbe565b5050565b601f821115610c2157610bf281610ac1565b610bfb84610ad6565b81016020851015610c0a578190505b610c1e610c1685610ad6565b830182610bbd565b50505b505050565b600082821c905092915050565b6000610c4460001984600802610c26565b1980831691505092915050565b6000610c5d8383610c33565b9150826002028217905092915050565b610c76826105df565b67ffffffffffffffff811115610c8f57610c8e6107b5565b5b610c998254610a90565b610ca4828285610be0565b600060209050601f831160018114610cd75760008415610cc5578287015190505b610ccf8582610c51565b865550610d37565b601f198416610ce586610ac1565b60005b82811015610d0d57848901518255600182019150602085019450602081019050610ce8565b86831015610d2a5784890151610d26601f891682610c33565b8355505b6001600288020188555050505b505050505050565b7f4e487b7100000000000000000000000000000000000000000000000000000000600052603260045260246000fd5b7f416c726561647920636f6d706c65746564000000000000000000000000000000600082015250565b6000610da46011836109bb565b9150610daf82610d6e565b602082019050919050565b60006020820190508181036000830152610dd381610d97565b905091905056fea2646970667358221220d856dc359b5ce5c7cf6181971e6551c6c6937d5a9cb83edd08bd377a1c3adc4664736f6c634300081c0033",
  "linkReferences": {},
  "deployedLinkReferences": {}
}